{
  "contractName": "SkylarkPassport",
  "abi": [
    {
      "constant": false,
      "inputs": [],
      "name": "renounceOwnership",
      "outputs": [],
      "payable": false,
      "stateMutability": "nonpayable",
      "type": "function",
      "signature": "0x715018a6"
    },
    {
      "constant": true,
      "inputs": [],
      "name": "isContractOwner",
      "outputs": [
        {
          "name": "",
          "type": "bool"
        }
      ],
      "payable": false,
      "stateMutability": "view",
      "type": "function",
      "signature": "0x7f7dcdbf"
    },
    {
      "constant": true,
      "inputs": [],
      "name": "owner",
      "outputs": [
        {
          "name": "",
          "type": "address"
        }
      ],
      "payable": false,
      "stateMutability": "view",
      "type": "function",
      "signature": "0x8da5cb5b"
    },
    {
      "constant": false,
      "inputs": [
        {
          "name": "newOwner",
          "type": "address"
        }
      ],
      "name": "transferOwnership",
      "outputs": [],
      "payable": false,
      "stateMutability": "nonpayable",
      "type": "function",
      "signature": "0xf2fde38b"
    },
    {
      "inputs": [],
      "payable": false,
      "stateMutability": "nonpayable",
      "type": "constructor",
      "signature": "constructor"
    },
    {
      "anonymous": false,
      "inputs": [
        {
          "indexed": true,
          "name": "previousOwner",
          "type": "address"
        },
        {
          "indexed": true,
          "name": "newOwner",
          "type": "address"
        }
      ],
      "name": "OwnershipTransferred",
      "type": "event",
      "signature": "0x8be0079c531659141344cd1fd0a4f28419497f9722a3daafe3b4186f6b6457e0"
    },
    {
      "anonymous": false,
      "inputs": [
        {
          "indexed": true,
          "name": "pass",
          "type": "uint32"
        },
        {
          "indexed": true,
          "name": "owner",
          "type": "address"
        },
        {
          "indexed": false,
          "name": "typepass",
          "type": "uint256"
        }
      ],
      "name": "PassportIssue",
      "type": "event",
      "signature": "0xcca8c3da9504227c8345522681530fdbed3b79cf1c8738aae3bcabdb34af2710"
    },
    {
      "anonymous": false,
      "inputs": [
        {
          "indexed": true,
          "name": "pass",
          "type": "uint32"
        },
        {
          "indexed": true,
          "name": "to",
          "type": "address"
        }
      ],
      "name": "PassportDelegate",
      "type": "event",
      "signature": "0x92cdb542f76209efb43df7d3fe9120eaf61bc6bde0089303449a30297b263a71"
    },
    {
      "constant": false,
      "inputs": [
        {
          "name": "account",
          "type": "address"
        }
      ],
      "name": "grantProvider",
      "outputs": [
        {
          "name": "",
          "type": "bool"
        }
      ],
      "payable": false,
      "stateMutability": "nonpayable",
      "type": "function",
      "signature": "0xbc649f4c"
    },
    {
      "constant": false,
      "inputs": [
        {
          "name": "account",
          "type": "address"
        }
      ],
      "name": "deactivateProvider",
      "outputs": [
        {
          "name": "",
          "type": "bool"
        }
      ],
      "payable": false,
      "stateMutability": "nonpayable",
      "type": "function",
      "signature": "0xbba9dc60"
    },
    {
      "constant": true,
      "inputs": [
        {
          "name": "account",
          "type": "address"
        }
      ],
      "name": "isProvider",
      "outputs": [
        {
          "name": "",
          "type": "bool"
        }
      ],
      "payable": false,
      "stateMutability": "view",
      "type": "function",
      "signature": "0x6b074a07"
    },
    {
      "constant": true,
      "inputs": [
        {
          "name": "pass",
          "type": "uint32"
        }
      ],
      "name": "isActive",
      "outputs": [
        {
          "name": "",
          "type": "bool"
        }
      ],
      "payable": false,
      "stateMutability": "view",
      "type": "function",
      "signature": "0x5e19b305"
    },
    {
      "constant": true,
      "inputs": [
        {
          "name": "account",
          "type": "address"
        }
      ],
      "name": "hasActive",
      "outputs": [
        {
          "name": "",
          "type": "bool"
        }
      ],
      "payable": false,
      "stateMutability": "view",
      "type": "function",
      "signature": "0xd0f813cb"
    },
    {
      "constant": true,
      "inputs": [
        {
          "name": "pass",
          "type": "uint32"
        }
      ],
      "name": "getOwner",
      "outputs": [
        {
          "name": "",
          "type": "address"
        }
      ],
      "payable": false,
      "stateMutability": "view",
      "type": "function",
      "signature": "0x621b23e2"
    },
    {
      "constant": true,
      "inputs": [
        {
          "name": "account",
          "type": "address"
        }
      ],
      "name": "get",
      "outputs": [
        {
          "name": "",
          "type": "uint32"
        }
      ],
      "payable": false,
      "stateMutability": "view",
      "type": "function",
      "signature": "0xc2bc2efc"
    },
    {
      "constant": true,
      "inputs": [
        {
          "name": "pass",
          "type": "uint32"
        },
        {
          "name": "owner",
          "type": "address"
        }
      ],
      "name": "isOwner",
      "outputs": [
        {
          "name": "",
          "type": "bool"
        }
      ],
      "payable": false,
      "stateMutability": "view",
      "type": "function",
      "signature": "0xcaf590f9"
    },
    {
      "constant": false,
      "inputs": [
        {
          "name": "account",
          "type": "address"
        },
        {
          "name": "pass",
          "type": "uint32"
        }
      ],
      "name": "delegatePass",
      "outputs": [
        {
          "name": "",
          "type": "bool"
        }
      ],
      "payable": false,
      "stateMutability": "nonpayable",
      "type": "function",
      "signature": "0x9db68983"
    },
    {
      "constant": false,
      "inputs": [
        {
          "name": "account",
          "type": "address"
        },
        {
          "name": "pass",
          "type": "uint32"
        }
      ],
      "name": "deletePass",
      "outputs": [
        {
          "name": "",
          "type": "bool"
        }
      ],
      "payable": false,
      "stateMutability": "nonpayable",
      "type": "function",
      "signature": "0x79e3914b"
    },
    {
      "constant": false,
      "inputs": [
        {
          "name": "pass",
          "type": "uint32"
        }
      ],
      "name": "deactivatePass",
      "outputs": [
        {
          "name": "",
          "type": "bool"
        }
      ],
      "payable": false,
      "stateMutability": "nonpayable",
      "type": "function",
      "signature": "0xa07f9331"
    },
    {
      "constant": false,
      "inputs": [
        {
          "name": "pass",
          "type": "uint32"
        }
      ],
      "name": "activatePass",
      "outputs": [
        {
          "name": "",
          "type": "bool"
        }
      ],
      "payable": false,
      "stateMutability": "nonpayable",
      "type": "function",
      "signature": "0x18ae594e"
    },
    {
      "constant": false,
      "inputs": [
        {
          "name": "account",
          "type": "address"
        },
        {
          "name": "pass",
          "type": "uint32"
        },
        {
          "name": "passtype",
          "type": "uint8"
        }
      ],
      "name": "issue",
      "outputs": [
        {
          "name": "",
          "type": "bool"
        }
      ],
      "payable": false,
      "stateMutability": "nonpayable",
      "type": "function",
      "signature": "0xc8d9eb21"
    }
  ],
  "bytecode": "0x608060405234801561001057600080fd5b50336000806101000a81548173ffffffffffffffffffffffffffffffffffffffff021916908373ffffffffffffffffffffffffffffffffffffffff1602179055506000809054906101000a900473ffffffffffffffffffffffffffffffffffffffff1673ffffffffffffffffffffffffffffffffffffffff16600073ffffffffffffffffffffffffffffffffffffffff167f8be0079c531659141344cd1fd0a4f28419497f9722a3daafe3b4186f6b6457e060405160405180910390a36001600360003373ffffffffffffffffffffffffffffffffffffffff1673ffffffffffffffffffffffffffffffffffffffff16815260200190815260200160002060006101000a81548160ff02191690831515021790555061111c806101346000396000f3fe6080604052600436106100f1576000357c0100000000000000000000000000000000000000000000000000000000900463ffffffff16806318ae594e146100f65780635e19b3051461014f578063621b23e2146101a85780636b074a0714610229578063715018a61461029257806379e3914b146102a95780637f7dcdbf146103225780638da5cb5b146103515780639db68983146103a8578063a07f933114610421578063bba9dc601461047a578063bc649f4c146104e3578063c2bc2efc1461054c578063c8d9eb21146105bd578063caf590f914610643578063d0f813cb146106bc578063f2fde38b14610725575b600080fd5b34801561010257600080fd5b506101356004803603602081101561011957600080fd5b81019080803563ffffffff169060200190929190505050610776565b604051808215151515815260200191505060405180910390f35b34801561015b57600080fd5b5061018e6004803603602081101561017257600080fd5b81019080803563ffffffff1690602001909291905050506107d0565b604051808215151515815260200191505060405180910390f35b3480156101b457600080fd5b506101e7600480360360208110156101cb57600080fd5b81019080803563ffffffff169060200190929190505050610809565b604051808273ffffffffffffffffffffffffffffffffffffffff1673ffffffffffffffffffffffffffffffffffffffff16815260200191505060405180910390f35b34801561023557600080fd5b506102786004803603602081101561024c57600080fd5b81019080803573ffffffffffffffffffffffffffffffffffffffff169060200190929190505050610855565b604051808215151515815260200191505060405180910390f35b34801561029e57600080fd5b506102a76108ab565b005b3480156102b557600080fd5b50610308600480360360408110156102cc57600080fd5b81019080803573ffffffffffffffffffffffffffffffffffffffff169060200190929190803563ffffffff16906020019092919050505061097d565b604051808215151515815260200191505060405180910390f35b34801561032e57600080fd5b50610337610a4f565b604051808215151515815260200191505060405180910390f35b34801561035d57600080fd5b50610366610aa6565b604051808273ffffffffffffffffffffffffffffffffffffffff1673ffffffffffffffffffffffffffffffffffffffff16815260200191505060405180910390f35b3480156103b457600080fd5b50610407600480360360408110156103cb57600080fd5b81019080803573ffffffffffffffffffffffffffffffffffffffff169060200190929190803563ffffffff169060200190929190505050610acf565b604051808215151515815260200191505060405180910390f35b34801561042d57600080fd5b506104606004803603602081101561044457600080fd5b81019080803563ffffffff169060200190929190505050610b63565b604051808215151515815260200191505060405180910390f35b34801561048657600080fd5b506104c96004803603602081101561049d57600080fd5b81019080803573ffffffffffffffffffffffffffffffffffffffff169060200190929190505050610be2565b604051808215151515815260200191505060405180910390f35b3480156104ef57600080fd5b506105326004803603602081101561050657600080fd5b81019080803573ffffffffffffffffffffffffffffffffffffffff169060200190929190505050610c58565b604051808215151515815260200191505060405180910390f35b34801561055857600080fd5b5061059b6004803603602081101561056f57600080fd5b81019080803573ffffffffffffffffffffffffffffffffffffffff169060200190929190505050610cce565b604051808263ffffffff1663ffffffff16815260200191505060405180910390f35b3480156105c957600080fd5b50610629600480360360608110156105e057600080fd5b81019080803573ffffffffffffffffffffffffffffffffffffffff169060200190929190803563ffffffff169060200190929190803560ff169060200190929190505050610d27565b604051808215151515815260200191505060405180910390f35b34801561064f57600080fd5b506106a26004803603604081101561066657600080fd5b81019080803563ffffffff169060200190929190803573ffffffffffffffffffffffffffffffffffffffff169060200190929190505050610ed5565b604051808215151515815260200191505060405180910390f35b3480156106c857600080fd5b5061070b600480360360208110156106df57600080fd5b81019080803573ffffffffffffffffffffffffffffffffffffffff169060200190929190505050610f61565b604051808215151515815260200191505060405180910390f35b34801561073157600080fd5b506107746004803603602081101561074857600080fd5b81019080803573ffffffffffffffffffffffffffffffffffffffff169060200190929190505050610fd7565b005b600061078133610855565b151561078c57600080fd5b6001600260008463ffffffff1663ffffffff16815260200190815260200160002060000160156101000a81548160ff02191690831515021790555060019050919050565b6000600260008363ffffffff1663ffffffff16815260200190815260200160002060000160159054906101000a900460ff169050919050565b6000600260008363ffffffff1663ffffffff16815260200190815260200160002060000160019054906101000a900473ffffffffffffffffffffffffffffffffffffffff169050919050565b6000600360008373ffffffffffffffffffffffffffffffffffffffff1673ffffffffffffffffffffffffffffffffffffffff16815260200190815260200160002060009054906101000a900460ff169050919050565b6108b3610a4f565b15156108be57600080fd5b600073ffffffffffffffffffffffffffffffffffffffff166000809054906101000a900473ffffffffffffffffffffffffffffffffffffffff1673ffffffffffffffffffffffffffffffffffffffff167f8be0079c531659141344cd1fd0a4f28419497f9722a3daafe3b4186f6b6457e060405160405180910390a360008060006101000a81548173ffffffffffffffffffffffffffffffffffffffff021916908373ffffffffffffffffffffffffffffffffffffffff160217905550565b60006109898233610ed5565b151561099457600080fd5b61099d83610f61565b1515156109a957600080fd5b600160008473ffffffffffffffffffffffffffffffffffffffff1673ffffffffffffffffffffffffffffffffffffffff16815260200190815260200160002060006101000a81549063ffffffff02191690558273ffffffffffffffffffffffffffffffffffffffff168263ffffffff167f92cdb542f76209efb43df7d3fe9120eaf61bc6bde0089303449a30297b263a7160405160405180910390a36001905092915050565b60008060009054906101000a900473ffffffffffffffffffffffffffffffffffffffff1673ffffffffffffffffffffffffffffffffffffffff163373ffffffffffffffffffffffffffffffffffffffff1614905090565b60008060009054906101000a900473ffffffffffffffffffffffffffffffffffffffff16905090565b6000610adb8233610ed5565b1515610ae657600080fd5b610aef83610f61565b151515610afb57600080fd5b81600160008573ffffffffffffffffffffffffffffffffffffffff1673ffffffffffffffffffffffffffffffffffffffff16815260200190815260200160002060006101000a81548163ffffffff021916908363ffffffff1602179055506001905092915050565b6000610b6f8233610ed5565b80610b7f5750610b7e33610855565b5b1515610b8a57600080fd5b610b9333610f61565b1515610b9e57600080fd5b6000600260008463ffffffff1663ffffffff16815260200190815260200160002060000160156101000a81548160ff02191690831515021790555060019050919050565b6000610bec610a4f565b1515610bf757600080fd5b6000600360008473ffffffffffffffffffffffffffffffffffffffff1673ffffffffffffffffffffffffffffffffffffffff16815260200190815260200160002060006101000a81548160ff02191690831515021790555060019050919050565b6000610c62610a4f565b1515610c6d57600080fd5b6001600360008473ffffffffffffffffffffffffffffffffffffffff1673ffffffffffffffffffffffffffffffffffffffff16815260200190815260200160002060006101000a81548160ff02191690831515021790555060019050919050565b6000600160008373ffffffffffffffffffffffffffffffffffffffff1673ffffffffffffffffffffffffffffffffffffffff16815260200190815260200160002060009054906101000a900463ffffffff169050919050565b6000610d3233610855565b1515610d3d57600080fd5b81600260008563ffffffff1663ffffffff16815260200190815260200160002060000160006101000a81548160ff021916908360ff1602179055506001600260008563ffffffff1663ffffffff16815260200190815260200160002060000160156101000a81548160ff02191690831515021790555083600260008563ffffffff1663ffffffff16815260200190815260200160002060000160016101000a81548173ffffffffffffffffffffffffffffffffffffffff021916908373ffffffffffffffffffffffffffffffffffffffff16021790555082600160008673ffffffffffffffffffffffffffffffffffffffff1673ffffffffffffffffffffffffffffffffffffffff16815260200190815260200160002060006101000a81548163ffffffff021916908363ffffffff1602179055508373ffffffffffffffffffffffffffffffffffffffff168363ffffffff167fcca8c3da9504227c8345522681530fdbed3b79cf1c8738aae3bcabdb34af271084604051808260ff16815260200191505060405180910390a3600190509392505050565b60008173ffffffffffffffffffffffffffffffffffffffff16600260008563ffffffff1663ffffffff16815260200190815260200160002060000160019054906101000a900473ffffffffffffffffffffffffffffffffffffffff1673ffffffffffffffffffffffffffffffffffffffff161415610f565760019050610f5b565b600090505b92915050565b600060011515610fbf600160008573ffffffffffffffffffffffffffffffffffffffff1673ffffffffffffffffffffffffffffffffffffffff16815260200190815260200160002060009054906101000a900463ffffffff166107d0565b151514610fcd576000610fd0565b60015b9050919050565b610fdf610a4f565b1515610fea57600080fd5b610ff381610ff6565b50565b600073ffffffffffffffffffffffffffffffffffffffff168173ffffffffffffffffffffffffffffffffffffffff161415151561103257600080fd5b8073ffffffffffffffffffffffffffffffffffffffff166000809054906101000a900473ffffffffffffffffffffffffffffffffffffffff1673ffffffffffffffffffffffffffffffffffffffff167f8be0079c531659141344cd1fd0a4f28419497f9722a3daafe3b4186f6b6457e060405160405180910390a3806000806101000a81548173ffffffffffffffffffffffffffffffffffffffff021916908373ffffffffffffffffffffffffffffffffffffffff1602179055505056fea165627a7a7230582002c743446c80143705bb32459b76c3b7a102e49c12674ab434cff0261451575a0029",
  "source": "pragma solidity ^0.5.0;\nimport \"./PassportInterface.sol\";\n// import \"./PassportProvider.sol\";\nimport \"./Ownable.sol\";\n\n\ncontract SkylarkPassport is PassportInterface, Ownable {\n\n    struct Passport {\n      uint8 passtype;\n      address owner;\n      bool active;\n    }\n\n    mapping (address => uint32) balances;\n    mapping (uint32 => Passport) passport;\n    mapping (address => bool) provider;\n\n    constructor() public {\n      provider[msg.sender] = true;\n    }\n\n    modifier onlyProvider(){\n      require(isProvider(msg.sender));\n      _;\n    }\n\n    // Grant provider role to account\n    function grantProvider(address account) public onlyOwner returns(bool){\n      provider[account] = true;\n      return true;\n    }\n\n    // Deactivate provider account\n    function deactivateProvider(address account) public onlyOwner returns(bool){\n      provider[account] = false;\n      return true;\n    }\n\n    // Check if address isProvider\n    function isProvider(address account) public view returns(bool){\n      return provider[account];\n    }\n    // Check if passport isActive\n    function isActive(uint32 pass) public view returns(bool){\n      return passport[pass].active;\n    }\n    // Check if address have an passport\n    function hasActive(address account) public view returns(bool) {\n      return isActive(balances[account]) == true ? true : false;\n    }\n\n    // Get passport owner\n    function getOwner(uint32 pass) public view returns(address) {\n      return passport[pass].owner;\n    }\n\n    // Get passport by address\n    function get(address account) public view returns(uint32) {\n       return balances[account];\n    }\n\n    // Check if address is pass owner\n    function isOwner(uint32 pass, address owner) public view returns(bool) {\n      if (passport[pass].owner == owner){\n        return true;\n      } else {\n        return false;\n      }\n    }\n\n    // Delegate passport to account\n    function delegatePass(address account, uint32 pass) public returns(bool) {\n      require(isOwner(pass, msg.sender));\n      require(!hasActive(account));\n      balances[account] = pass;\n      return true;\n    }\n\n    // Delete delegated passport from account\n    function deletePass(address account, uint32 pass) public returns(bool) {\n      require(isOwner(pass, msg.sender));\n      require(!hasActive(account));\n      delete balances[account];\n      emit PassportDelegate(pass, account);\n      return true;\n    }\n\n    // Deactivate passport\n    function deactivatePass(uint32 pass) public returns(bool) {\n      require(isOwner(pass, msg.sender) || isProvider(msg.sender));\n      require(hasActive(msg.sender));\n      passport[pass].active = false;\n      return true;\n    }\n\n    // Activate passport\n    function activatePass(uint32 pass) public onlyProvider returns(bool) {\n      passport[pass].active = true;\n      return true;\n    }\n\n    // Issue passport to account\n    function issue(address account, uint32 pass, uint8 passtype) public onlyProvider returns(bool) {\n      passport[pass].passtype = passtype;\n      passport[pass].active = true;\n      passport[pass].owner = account;\n      balances[account] = pass;\n      emit PassportIssue(pass, account, passtype);\n      return true;\n    }\n\n}\n",
  "sourcePath": "/Users/mishayefimets/SkylarkWallet/contracts/Passport.sol",
  "compiler": {
    "name": "solc",
    "version": "0.5.0+commit.1d4f565a.Emscripten.clang"
  },
  "schemaVersion": "3.0.1",
  "updatedAt": "2019-03-12T09:12:06.915Z",
  "devdoc": {
    "methods": {
      "isContractOwner()": {
        "return": "true if `msg.sender` is the owner of the contract."
      },
      "owner()": {
        "return": "the address of the owner."
      },
      "renounceOwnership()": {
        "details": "Allows the current owner to relinquish control of the contract."
      },
      "transferOwnership(address)": {
        "details": "Allows the current owner to transfer control of the contract to a newOwner.",
        "params": {
          "newOwner": "The address to transfer ownership to."
        }
      }
    }
  },
  "userdoc": {
    "methods": {
      "renounceOwnership()": {
        "notice": "Renouncing to ownership will leave the contract without an owner. It will not be possible to call the functions with the `onlyOwner` modifier anymore."
      }
    }
  }
}