{
  "contractName": "StableERC20",
  "abi": [
    {
      "constant": true,
      "inputs": [],
      "name": "_depositFeeWallet",
      "outputs": [
        {
          "name": "",
          "type": "address"
        }
      ],
      "payable": false,
      "stateMutability": "view",
      "type": "function"
    },
    {
      "constant": true,
      "inputs": [],
      "name": "_transferFeeWallet",
      "outputs": [
        {
          "name": "",
          "type": "address"
        }
      ],
      "payable": false,
      "stateMutability": "view",
      "type": "function"
    },
    {
      "constant": false,
      "inputs": [],
      "name": "renounceOwnership",
      "outputs": [],
      "payable": false,
      "stateMutability": "nonpayable",
      "type": "function"
    },
    {
      "constant": true,
      "inputs": [],
      "name": "_withdrawFeeWallet",
      "outputs": [
        {
          "name": "",
          "type": "address"
        }
      ],
      "payable": false,
      "stateMutability": "view",
      "type": "function"
    },
    {
      "constant": true,
      "inputs": [],
      "name": "owner",
      "outputs": [
        {
          "name": "",
          "type": "address"
        }
      ],
      "payable": false,
      "stateMutability": "view",
      "type": "function"
    },
    {
      "constant": true,
      "inputs": [],
      "name": "isOwner",
      "outputs": [
        {
          "name": "",
          "type": "bool"
        }
      ],
      "payable": false,
      "stateMutability": "view",
      "type": "function"
    },
    {
      "constant": true,
      "inputs": [],
      "name": "_passport",
      "outputs": [
        {
          "name": "",
          "type": "address"
        }
      ],
      "payable": false,
      "stateMutability": "view",
      "type": "function"
    },
    {
      "constant": true,
      "inputs": [
        {
          "name": "",
          "type": "address"
        },
        {
          "name": "",
          "type": "address"
        }
      ],
      "name": "_allowed",
      "outputs": [
        {
          "name": "",
          "type": "uint256"
        }
      ],
      "payable": false,
      "stateMutability": "view",
      "type": "function"
    },
    {
      "constant": false,
      "inputs": [
        {
          "name": "newOwner",
          "type": "address"
        }
      ],
      "name": "transferOwnership",
      "outputs": [],
      "payable": false,
      "stateMutability": "nonpayable",
      "type": "function"
    },
    {
      "anonymous": false,
      "inputs": [
        {
          "indexed": true,
          "name": "previousOwner",
          "type": "address"
        },
        {
          "indexed": true,
          "name": "newOwner",
          "type": "address"
        }
      ],
      "name": "OwnershipTransferred",
      "type": "event"
    },
    {
      "anonymous": false,
      "inputs": [
        {
          "indexed": true,
          "name": "from",
          "type": "address"
        },
        {
          "indexed": true,
          "name": "to",
          "type": "address"
        },
        {
          "indexed": false,
          "name": "value",
          "type": "uint256"
        },
        {
          "indexed": false,
          "name": "fee",
          "type": "uint256"
        },
        {
          "indexed": false,
          "name": "ref",
          "type": "bytes32"
        }
      ],
      "name": "Transfer",
      "type": "event"
    },
    {
      "anonymous": false,
      "inputs": [
        {
          "indexed": true,
          "name": "owner",
          "type": "address"
        },
        {
          "indexed": true,
          "name": "spender",
          "type": "address"
        },
        {
          "indexed": false,
          "name": "value",
          "type": "uint256"
        }
      ],
      "name": "Approval",
      "type": "event"
    },
    {
      "constant": false,
      "inputs": [
        {
          "name": "transferFlex",
          "type": "uint8"
        },
        {
          "name": "transferFix",
          "type": "uint256"
        },
        {
          "name": "depositFlex",
          "type": "uint8"
        },
        {
          "name": "depositFix",
          "type": "uint256"
        },
        {
          "name": "withdrawFlex",
          "type": "uint8"
        },
        {
          "name": "withdrawFix",
          "type": "uint256"
        }
      ],
      "name": "setDefaultFee",
      "outputs": [
        {
          "name": "",
          "type": "bool"
        }
      ],
      "payable": false,
      "stateMutability": "nonpayable",
      "type": "function"
    },
    {
      "constant": false,
      "inputs": [
        {
          "name": "pass",
          "type": "uint32"
        },
        {
          "name": "transferFlex",
          "type": "uint8"
        },
        {
          "name": "transferFix",
          "type": "uint256"
        },
        {
          "name": "depositFlex",
          "type": "uint8"
        },
        {
          "name": "depositFix",
          "type": "uint256"
        },
        {
          "name": "withdrawFlex",
          "type": "uint8"
        },
        {
          "name": "withdrawFix",
          "type": "uint256"
        }
      ],
      "name": "setPassportFee",
      "outputs": [
        {
          "name": "",
          "type": "bool"
        }
      ],
      "payable": false,
      "stateMutability": "nonpayable",
      "type": "function"
    },
    {
      "constant": true,
      "inputs": [],
      "name": "getDefaultFees",
      "outputs": [
        {
          "name": "",
          "type": "uint8"
        },
        {
          "name": "",
          "type": "uint256"
        },
        {
          "name": "",
          "type": "uint8"
        },
        {
          "name": "",
          "type": "uint256"
        },
        {
          "name": "",
          "type": "uint8"
        },
        {
          "name": "",
          "type": "uint256"
        }
      ],
      "payable": false,
      "stateMutability": "view",
      "type": "function"
    },
    {
      "constant": true,
      "inputs": [
        {
          "name": "payer",
          "type": "address"
        }
      ],
      "name": "getFees",
      "outputs": [
        {
          "name": "",
          "type": "uint8"
        },
        {
          "name": "",
          "type": "uint256"
        },
        {
          "name": "",
          "type": "uint8"
        },
        {
          "name": "",
          "type": "uint256"
        },
        {
          "name": "",
          "type": "uint8"
        },
        {
          "name": "",
          "type": "uint256"
        }
      ],
      "payable": false,
      "stateMutability": "view",
      "type": "function"
    },
    {
      "constant": true,
      "inputs": [
        {
          "name": "pass",
          "type": "uint32"
        }
      ],
      "name": "getPassportFees",
      "outputs": [
        {
          "name": "",
          "type": "uint8"
        },
        {
          "name": "",
          "type": "uint256"
        },
        {
          "name": "",
          "type": "uint8"
        },
        {
          "name": "",
          "type": "uint256"
        },
        {
          "name": "",
          "type": "uint8"
        },
        {
          "name": "",
          "type": "uint256"
        }
      ],
      "payable": false,
      "stateMutability": "view",
      "type": "function"
    },
    {
      "constant": true,
      "inputs": [
        {
          "name": "payer",
          "type": "address"
        },
        {
          "name": "amount",
          "type": "uint256"
        }
      ],
      "name": "getTransferFee",
      "outputs": [
        {
          "name": "",
          "type": "uint256"
        }
      ],
      "payable": false,
      "stateMutability": "view",
      "type": "function"
    },
    {
      "constant": true,
      "inputs": [
        {
          "name": "payer",
          "type": "address"
        },
        {
          "name": "amount",
          "type": "uint256"
        }
      ],
      "name": "getDepositFee",
      "outputs": [
        {
          "name": "",
          "type": "uint256"
        }
      ],
      "payable": false,
      "stateMutability": "view",
      "type": "function"
    },
    {
      "constant": true,
      "inputs": [
        {
          "name": "payer",
          "type": "address"
        },
        {
          "name": "amount",
          "type": "uint256"
        }
      ],
      "name": "getWithdrawFee",
      "outputs": [
        {
          "name": "",
          "type": "uint256"
        }
      ],
      "payable": false,
      "stateMutability": "view",
      "type": "function"
    },
    {
      "constant": true,
      "inputs": [],
      "name": "totalSupply",
      "outputs": [
        {
          "name": "",
          "type": "uint256"
        }
      ],
      "payable": false,
      "stateMutability": "view",
      "type": "function"
    },
    {
      "constant": true,
      "inputs": [
        {
          "name": "owner",
          "type": "address"
        }
      ],
      "name": "balanceOf",
      "outputs": [
        {
          "name": "",
          "type": "uint256"
        }
      ],
      "payable": false,
      "stateMutability": "view",
      "type": "function"
    },
    {
      "constant": true,
      "inputs": [
        {
          "name": "owner",
          "type": "address"
        },
        {
          "name": "spender",
          "type": "address"
        }
      ],
      "name": "allowance",
      "outputs": [
        {
          "name": "",
          "type": "uint256"
        }
      ],
      "payable": false,
      "stateMutability": "view",
      "type": "function"
    },
    {
      "constant": false,
      "inputs": [
        {
          "name": "to",
          "type": "address"
        },
        {
          "name": "value",
          "type": "uint256"
        }
      ],
      "name": "transfer",
      "outputs": [
        {
          "name": "",
          "type": "bool"
        }
      ],
      "payable": false,
      "stateMutability": "nonpayable",
      "type": "function"
    },
    {
      "constant": false,
      "inputs": [
        {
          "name": "to",
          "type": "address"
        },
        {
          "name": "value",
          "type": "uint256"
        },
        {
          "name": "ref",
          "type": "bytes32"
        }
      ],
      "name": "transferRef",
      "outputs": [
        {
          "name": "",
          "type": "bool"
        }
      ],
      "payable": false,
      "stateMutability": "nonpayable",
      "type": "function"
    },
    {
      "constant": false,
      "inputs": [
        {
          "name": "account",
          "type": "address"
        },
        {
          "name": "value",
          "type": "uint256"
        }
      ],
      "name": "mint",
      "outputs": [
        {
          "name": "",
          "type": "bool"
        }
      ],
      "payable": false,
      "stateMutability": "nonpayable",
      "type": "function"
    },
    {
      "constant": false,
      "inputs": [
        {
          "name": "account",
          "type": "address"
        },
        {
          "name": "value",
          "type": "uint256"
        }
      ],
      "name": "burn",
      "outputs": [
        {
          "name": "",
          "type": "bool"
        }
      ],
      "payable": false,
      "stateMutability": "nonpayable",
      "type": "function"
    },
    {
      "constant": false,
      "inputs": [
        {
          "name": "value",
          "type": "uint256"
        }
      ],
      "name": "withdraw",
      "outputs": [
        {
          "name": "",
          "type": "bool"
        }
      ],
      "payable": false,
      "stateMutability": "nonpayable",
      "type": "function"
    },
    {
      "constant": false,
      "inputs": [
        {
          "name": "spender",
          "type": "address"
        },
        {
          "name": "value",
          "type": "uint256"
        }
      ],
      "name": "approve",
      "outputs": [
        {
          "name": "",
          "type": "bool"
        }
      ],
      "payable": false,
      "stateMutability": "nonpayable",
      "type": "function"
    },
    {
      "constant": false,
      "inputs": [
        {
          "name": "from",
          "type": "address"
        },
        {
          "name": "to",
          "type": "address"
        },
        {
          "name": "value",
          "type": "uint256"
        },
        {
          "name": "ref",
          "type": "bytes32"
        }
      ],
      "name": "transferFrom",
      "outputs": [
        {
          "name": "",
          "type": "bool"
        }
      ],
      "payable": false,
      "stateMutability": "nonpayable",
      "type": "function"
    },
    {
      "constant": false,
      "inputs": [
        {
          "name": "spender",
          "type": "address"
        },
        {
          "name": "addedValue",
          "type": "uint256"
        }
      ],
      "name": "increaseAllowance",
      "outputs": [
        {
          "name": "",
          "type": "bool"
        }
      ],
      "payable": false,
      "stateMutability": "nonpayable",
      "type": "function"
    },
    {
      "constant": false,
      "inputs": [
        {
          "name": "spender",
          "type": "address"
        },
        {
          "name": "subtractedValue",
          "type": "uint256"
        }
      ],
      "name": "decreaseAllowance",
      "outputs": [
        {
          "name": "",
          "type": "bool"
        }
      ],
      "payable": false,
      "stateMutability": "nonpayable",
      "type": "function"
    }
  ],
  "bytecode": "0x6080604052336000806101000a81548173ffffffffffffffffffffffffffffffffffffffff021916908373ffffffffffffffffffffffffffffffffffffffff1602179055506000809054906101000a900473ffffffffffffffffffffffffffffffffffffffff1673ffffffffffffffffffffffffffffffffffffffff16600073ffffffffffffffffffffffffffffffffffffffff167f8be0079c531659141344cd1fd0a4f28419497f9722a3daafe3b4186f6b6457e060405160405180910390a3613279806100cf6000396000f3fe608060405260043610610175576000357c0100000000000000000000000000000000000000000000000000000000900463ffffffff168063034d464c1461017a578063095ea7b3146101d157806318160ddd146102445780632e1a7d4d1461026f57806339509351146102c2578063401e33671461033557806340891c73146103d257806340c10f191461042957806370a082311461049c578063715018a61461050157806377de24c7146105185780637a2136c9146105b65780638b6b2227146106405780638da5cb5b146106975780638f32d59b146106ee5780639af608c91461071d5780639dc29fac146107b75780639f2b03761461082a578063a283a71e1461088a578063a457c2d714610907578063a78253731461097a578063a9059cbb146109e9578063af998ad214610a5c578063b0de294a14610ab3578063ba0fb86114610b41578063dd62ed3e14610bc6578063f2fde38b14610c4b578063fbfe316e14610c9c578063fc42b58f14610d0b575b600080fd5b34801561018657600080fd5b5061018f610d7a565b604051808273ffffffffffffffffffffffffffffffffffffffff1673ffffffffffffffffffffffffffffffffffffffff16815260200191505060405180910390f35b3480156101dd57600080fd5b5061022a600480360360408110156101f457600080fd5b81019080803573ffffffffffffffffffffffffffffffffffffffff16906020019092919080359060200190929190505050610da0565b604051808215151515815260200191505060405180910390f35b34801561025057600080fd5b50610259610ecd565b6040518082815260200191505060405180910390f35b34801561027b57600080fd5b506102a86004803603602081101561029257600080fd5b8101908080359060200190929190505050610ed7565b604051808215151515815260200191505060405180910390f35b3480156102ce57600080fd5b5061031b600480360360408110156102e557600080fd5b81019080803573ffffffffffffffffffffffffffffffffffffffff16906020019092919080359060200190929190505050610ee8565b604051808215151515815260200191505060405180910390f35b34801561034157600080fd5b506103b86004803603608081101561035857600080fd5b81019080803573ffffffffffffffffffffffffffffffffffffffff169060200190929190803573ffffffffffffffffffffffffffffffffffffffff169060200190929190803590602001909291908035906020019092919050505061111f565b604051808215151515815260200191505060405180910390f35b3480156103de57600080fd5b506103e76113d4565b604051808273ffffffffffffffffffffffffffffffffffffffff1673ffffffffffffffffffffffffffffffffffffffff16815260200191505060405180910390f35b34801561043557600080fd5b506104826004803603604081101561044c57600080fd5b81019080803573ffffffffffffffffffffffffffffffffffffffff169060200190929190803590602001909291905050506113fa565b604051808215151515815260200191505060405180910390f35b3480156104a857600080fd5b506104eb600480360360208110156104bf57600080fd5b81019080803573ffffffffffffffffffffffffffffffffffffffff16906020019092919050505061141f565b6040518082815260200191505060405180910390f35b34801561050d57600080fd5b50610516611468565b005b34801561052457600080fd5b5061059c600480360360e081101561053b57600080fd5b81019080803563ffffffff169060200190929190803560ff16906020019092919080359060200190929190803560ff16906020019092919080359060200190929190803560ff1690602001909291908035906020019092919050505061153a565b604051808215151515815260200191505060405180910390f35b3480156105c257600080fd5b506105f5600480360360208110156105d957600080fd5b81019080803563ffffffff169060200190929190505050611684565b604051808760ff1660ff1681526020018681526020018560ff1660ff1681526020018481526020018360ff1660ff168152602001828152602001965050505050505060405180910390f35b34801561064c57600080fd5b5061065561176b565b604051808273ffffffffffffffffffffffffffffffffffffffff1673ffffffffffffffffffffffffffffffffffffffff16815260200191505060405180910390f35b3480156106a357600080fd5b506106ac611791565b604051808273ffffffffffffffffffffffffffffffffffffffff1673ffffffffffffffffffffffffffffffffffffffff16815260200191505060405180910390f35b3480156106fa57600080fd5b506107036117ba565b604051808215151515815260200191505060405180910390f35b34801561072957600080fd5b5061076c6004803603602081101561074057600080fd5b81019080803573ffffffffffffffffffffffffffffffffffffffff169060200190929190505050611811565b604051808760ff1660ff1681526020018681526020018560ff1660ff1681526020018481526020018360ff1660ff168152602001828152602001965050505050505060405180910390f35b3480156107c357600080fd5b50610810600480360360408110156107da57600080fd5b81019080803573ffffffffffffffffffffffffffffffffffffffff169060200190929190803590602001909291905050506119f3565b604051808215151515815260200191505060405180910390f35b34801561083657600080fd5b5061083f611a18565b604051808760ff1660ff1681526020018681526020018560ff1660ff1681526020018481526020018360ff1660ff168152602001828152602001965050505050505060405180910390f35b34801561089657600080fd5b506108ed600480360360608110156108ad57600080fd5b81019080803573ffffffffffffffffffffffffffffffffffffffff1690602001909291908035906020019092919080359060200190929190505050611af8565b604051808215151515815260200191505060405180910390f35b34801561091357600080fd5b506109606004803603604081101561092a57600080fd5b81019080803573ffffffffffffffffffffffffffffffffffffffff16906020019092919080359060200190929190505050611c12565b604051808215151515815260200191505060405180910390f35b34801561098657600080fd5b506109d36004803603604081101561099d57600080fd5b81019080803573ffffffffffffffffffffffffffffffffffffffff16906020019092919080359060200190929190505050611e49565b6040518082815260200191505060405180910390f35b3480156109f557600080fd5b50610a4260048036036040811015610a0c57600080fd5b81019080803573ffffffffffffffffffffffffffffffffffffffff1690602001909291908035906020019092919050505061207b565b604051808215151515815260200191505060405180910390f35b348015610a6857600080fd5b50610a71612195565b604051808273ffffffffffffffffffffffffffffffffffffffff1673ffffffffffffffffffffffffffffffffffffffff16815260200191505060405180910390f35b348015610abf57600080fd5b50610b27600480360360c0811015610ad657600080fd5b81019080803560ff16906020019092919080359060200190929190803560ff16906020019092919080359060200190929190803560ff169060200190929190803590602001909291905050506121bb565b604051808215151515815260200191505060405180910390f35b348015610b4d57600080fd5b50610bb060048036036040811015610b6457600080fd5b81019080803573ffffffffffffffffffffffffffffffffffffffff169060200190929190803573ffffffffffffffffffffffffffffffffffffffff1690602001909291905050506122e0565b6040518082815260200191505060405180910390f35b348015610bd257600080fd5b50610c3560048036036040811015610be957600080fd5b81019080803573ffffffffffffffffffffffffffffffffffffffff169060200190929190803573ffffffffffffffffffffffffffffffffffffffff169060200190929190505050612305565b6040518082815260200191505060405180910390f35b348015610c5757600080fd5b50610c9a60048036036020811015610c6e57600080fd5b81019080803573ffffffffffffffffffffffffffffffffffffffff16906020019092919050505061238c565b005b348015610ca857600080fd5b50610cf560048036036040811015610cbf57600080fd5b81019080803573ffffffffffffffffffffffffffffffffffffffff169060200190929190803590602001909291905050506123ab565b6040518082815260200191505060405180910390f35b348015610d1757600080fd5b50610d6460048036036040811015610d2e57600080fd5b81019080803573ffffffffffffffffffffffffffffffffffffffff169060200190929190803590602001909291905050506125dd565b6040518082815260200191505060405180910390f35b600560009054906101000a900473ffffffffffffffffffffffffffffffffffffffff1681565b60008073ffffffffffffffffffffffffffffffffffffffff168373ffffffffffffffffffffffffffffffffffffffff1614151515610ddd57600080fd5b81600260003373ffffffffffffffffffffffffffffffffffffffff1673ffffffffffffffffffffffffffffffffffffffff16815260200190815260200160002060008573ffffffffffffffffffffffffffffffffffffffff1673ffffffffffffffffffffffffffffffffffffffff168152602001908152602001600020819055508273ffffffffffffffffffffffffffffffffffffffff163373ffffffffffffffffffffffffffffffffffffffff167f8c5be1e5ebec7d5bd14f71427d1e84f3dd0314c0f7b2291e5b200ac8c7c3b925846040518082815260200191505060405180910390a36001905092915050565b6000600354905090565b6000610ee3338361280f565b919050565b60008073ffffffffffffffffffffffffffffffffffffffff168373ffffffffffffffffffffffffffffffffffffffff1614151515610f2557600080fd5b610fb482600260003373ffffffffffffffffffffffffffffffffffffffff1673ffffffffffffffffffffffffffffffffffffffff16815260200190815260200160002060008673ffffffffffffffffffffffffffffffffffffffff1673ffffffffffffffffffffffffffffffffffffffff16815260200190815260200160002054612ad390919063ffffffff16565b600260003373ffffffffffffffffffffffffffffffffffffffff1673ffffffffffffffffffffffffffffffffffffffff16815260200190815260200160002060008573ffffffffffffffffffffffffffffffffffffffff1673ffffffffffffffffffffffffffffffffffffffff168152602001908152602001600020819055508273ffffffffffffffffffffffffffffffffffffffff163373ffffffffffffffffffffffffffffffffffffffff167f8c5be1e5ebec7d5bd14f71427d1e84f3dd0314c0f7b2291e5b200ac8c7c3b925600260003373ffffffffffffffffffffffffffffffffffffffff1673ffffffffffffffffffffffffffffffffffffffff16815260200190815260200160002060008773ffffffffffffffffffffffffffffffffffffffff1673ffffffffffffffffffffffffffffffffffffffff168152602001908152602001600020546040518082815260200191505060405180910390a36001905092915050565b6000600760009054906101000a900473ffffffffffffffffffffffffffffffffffffffff1673ffffffffffffffffffffffffffffffffffffffff1663d0f813cb856040518263ffffffff167c0100000000000000000000000000000000000000000000000000000000028152600401808273ffffffffffffffffffffffffffffffffffffffff1673ffffffffffffffffffffffffffffffffffffffff16815260200191505060206040518083038186803b1580156111dc57600080fd5b505afa1580156111f0573d6000803e3d6000fd5b505050506040513d602081101561120657600080fd5b8101908080519060200190929190505050151561122257600080fd5b600260008673ffffffffffffffffffffffffffffffffffffffff1673ffffffffffffffffffffffffffffffffffffffff16815260200190815260200160002060003373ffffffffffffffffffffffffffffffffffffffff1673ffffffffffffffffffffffffffffffffffffffff1681526020019081526020016000205483111515156112ad57600080fd5b61133c83600260008873ffffffffffffffffffffffffffffffffffffffff1673ffffffffffffffffffffffffffffffffffffffff16815260200190815260200160002060003373ffffffffffffffffffffffffffffffffffffffff1673ffffffffffffffffffffffffffffffffffffffff16815260200190815260200160002054612af490919063ffffffff16565b600260008773ffffffffffffffffffffffffffffffffffffffff1673ffffffffffffffffffffffffffffffffffffffff16815260200190815260200160002060003373ffffffffffffffffffffffffffffffffffffffff1673ffffffffffffffffffffffffffffffffffffffff168152602001908152602001600020819055506113c885858585612b16565b60019050949350505050565b600460009054906101000a900473ffffffffffffffffffffffffffffffffffffffff1681565b60006114046117ba565b151561140f57600080fd5b6114198383612e35565b92915050565b6000600160008373ffffffffffffffffffffffffffffffffffffffff1673ffffffffffffffffffffffffffffffffffffffff168152602001908152602001600020549050919050565b6114706117ba565b151561147b57600080fd5b600073ffffffffffffffffffffffffffffffffffffffff166000809054906101000a900473ffffffffffffffffffffffffffffffffffffffff1673ffffffffffffffffffffffffffffffffffffffff167f8be0079c531659141344cd1fd0a4f28419497f9722a3daafe3b4186f6b6457e060405160405180910390a360008060006101000a81548173ffffffffffffffffffffffffffffffffffffffff021916908373ffffffffffffffffffffffffffffffffffffffff160217905550565b60006115446117ba565b151561154f57600080fd5b86600860008a63ffffffff1663ffffffff16815260200190815260200160002060000160006101000a81548160ff021916908360ff16021790555085600860008a63ffffffff1663ffffffff1681526020019081526020016000206001018190555084600860008a63ffffffff1663ffffffff16815260200190815260200160002060020160006101000a81548160ff021916908360ff16021790555083600860008a63ffffffff1663ffffffff1681526020019081526020016000206003018190555082600860008a63ffffffff1663ffffffff16815260200190815260200160002060040160006101000a81548160ff021916908360ff16021790555081600860008a63ffffffff1663ffffffff1681526020019081526020016000206005018190555060019050979650505050505050565b60008060008060008061169561320d565b600860008963ffffffff1663ffffffff16815260200190815260200160002060c060405190810160405290816000820160009054906101000a900460ff1660ff1660ff168152602001600182015481526020016002820160009054906101000a900460ff1660ff1660ff168152602001600382015481526020016004820160009054906101000a900460ff1660ff1660ff1681526020016005820154815250509050806000015181602001518260400151836060015184608001518560a001519650965096509650965096505091939550919395565b600660009054906101000a900473ffffffffffffffffffffffffffffffffffffffff1681565b60008060009054906101000a900473ffffffffffffffffffffffffffffffffffffffff16905090565b60008060009054906101000a900473ffffffffffffffffffffffffffffffffffffffff1673ffffffffffffffffffffffffffffffffffffffff163373ffffffffffffffffffffffffffffffffffffffff1614905090565b6000806000806000806000600760009054906101000a900473ffffffffffffffffffffffffffffffffffffffff1673ffffffffffffffffffffffffffffffffffffffff1663c2bc2efc896040518263ffffffff167c0100000000000000000000000000000000000000000000000000000000028152600401808273ffffffffffffffffffffffffffffffffffffffff1673ffffffffffffffffffffffffffffffffffffffff16815260200191505060206040518083038186803b1580156118d757600080fd5b505afa1580156118eb573d6000803e3d6000fd5b505050506040513d602081101561190157600080fd5b8101908080519060200190929190505050905061191c61320d565b600860008363ffffffff1663ffffffff16815260200190815260200160002060c060405190810160405290816000820160009054906101000a900460ff1660ff1660ff168152602001600182015481526020016002820160009054906101000a900460ff1660ff1660ff168152602001600382015481526020016004820160009054906101000a900460ff1660ff1660ff1681526020016005820154815250509050806000015181602001518260400151836060015184608001518560a00151975097509750975097509750505091939550919395565b60006119fd6117ba565b1515611a0857600080fd5b611a12838361280f565b92915050565b600080600080600080611a2961320d565b600860008063ffffffff16815260200190815260200160002060c060405190810160405290816000820160009054906101000a900460ff1660ff1660ff168152602001600182015481526020016002820160009054906101000a900460ff1660ff1660ff168152602001600382015481526020016004820160009054906101000a900460ff1660ff1660ff1681526020016005820154815250509050806000015181602001518260400151836060015184608001518560a0015196509650965096509650965050909192939495565b6000600760009054906101000a900473ffffffffffffffffffffffffffffffffffffffff1673ffffffffffffffffffffffffffffffffffffffff1663d0f813cb856040518263ffffffff167c0100000000000000000000000000000000000000000000000000000000028152600401808273ffffffffffffffffffffffffffffffffffffffff1673ffffffffffffffffffffffffffffffffffffffff16815260200191505060206040518083038186803b158015611bb557600080fd5b505afa158015611bc9573d6000803e3d6000fd5b505050506040513d6020811015611bdf57600080fd5b81019080805190602001909291905050501515611bfb57600080fd5b611c0733858585612b16565b600190509392505050565b60008073ffffffffffffffffffffffffffffffffffffffff168373ffffffffffffffffffffffffffffffffffffffff1614151515611c4f57600080fd5b611cde82600260003373ffffffffffffffffffffffffffffffffffffffff1673ffffffffffffffffffffffffffffffffffffffff16815260200190815260200160002060008673ffffffffffffffffffffffffffffffffffffffff1673ffffffffffffffffffffffffffffffffffffffff16815260200190815260200160002054612af490919063ffffffff16565b600260003373ffffffffffffffffffffffffffffffffffffffff1673ffffffffffffffffffffffffffffffffffffffff16815260200190815260200160002060008573ffffffffffffffffffffffffffffffffffffffff1673ffffffffffffffffffffffffffffffffffffffff168152602001908152602001600020819055508273ffffffffffffffffffffffffffffffffffffffff163373ffffffffffffffffffffffffffffffffffffffff167f8c5be1e5ebec7d5bd14f71427d1e84f3dd0314c0f7b2291e5b200ac8c7c3b925600260003373ffffffffffffffffffffffffffffffffffffffff1673ffffffffffffffffffffffffffffffffffffffff16815260200190815260200160002060008773ffffffffffffffffffffffffffffffffffffffff1673ffffffffffffffffffffffffffffffffffffffff168152602001908152602001600020546040518082815260200191505060405180910390a36001905092915050565b600080600760009054906101000a900473ffffffffffffffffffffffffffffffffffffffff1673ffffffffffffffffffffffffffffffffffffffff1663c2bc2efc856040518263ffffffff167c0100000000000000000000000000000000000000000000000000000000028152600401808273ffffffffffffffffffffffffffffffffffffffff1673ffffffffffffffffffffffffffffffffffffffff16815260200191505060206040518083038186803b158015611f0757600080fd5b505afa158015611f1b573d6000803e3d6000fd5b505050506040513d6020811015611f3157600080fd5b810190808051906020019092919050505090506000611fd3611fa26103e8611f94600860008763ffffffff1663ffffffff16815260200190815260200160002060020160009054906101000a900460ff1660ff16886130ab90919063ffffffff16565b6130e990919063ffffffff16565b600860008563ffffffff1663ffffffff16815260200190815260200160002060030154612ad390919063ffffffff16565b9050600061205861202d6103e861201f600860008063ffffffff16815260200190815260200160002060020160009054906101000a900460ff1660ff16896130ab90919063ffffffff16565b6130e990919063ffffffff16565b600860008063ffffffff16815260200190815260200160002060030154612ad390919063ffffffff16565b9050600082111561206e57819350505050612075565b8093505050505b92915050565b6000600760009054906101000a900473ffffffffffffffffffffffffffffffffffffffff1673ffffffffffffffffffffffffffffffffffffffff1663d0f813cb846040518263ffffffff167c0100000000000000000000000000000000000000000000000000000000028152600401808273ffffffffffffffffffffffffffffffffffffffff1673ffffffffffffffffffffffffffffffffffffffff16815260200191505060206040518083038186803b15801561213857600080fd5b505afa15801561214c573d6000803e3d6000fd5b505050506040513d602081101561216257600080fd5b8101908080519060200190929190505050151561217e57600080fd5b61218b3384846000612b16565b6001905092915050565b600760009054906101000a900473ffffffffffffffffffffffffffffffffffffffff1681565b60006121c56117ba565b15156121d057600080fd5b86600860008063ffffffff16815260200190815260200160002060000160006101000a81548160ff021916908360ff16021790555085600860008063ffffffff1681526020019081526020016000206001018190555084600860008063ffffffff16815260200190815260200160002060020160006101000a81548160ff021916908360ff16021790555083600860008063ffffffff1681526020019081526020016000206003018190555082600860008063ffffffff16815260200190815260200160002060040160006101000a81548160ff021916908360ff16021790555081600860008063ffffffff16815260200190815260200160002060050181905550600190509695505050505050565b6002602052816000526040600020602052806000526040600020600091509150505481565b6000600260008473ffffffffffffffffffffffffffffffffffffffff1673ffffffffffffffffffffffffffffffffffffffff16815260200190815260200160002060008373ffffffffffffffffffffffffffffffffffffffff1673ffffffffffffffffffffffffffffffffffffffff16815260200190815260200160002054905092915050565b6123946117ba565b151561239f57600080fd5b6123a881613113565b50565b600080600760009054906101000a900473ffffffffffffffffffffffffffffffffffffffff1673ffffffffffffffffffffffffffffffffffffffff1663c2bc2efc856040518263ffffffff167c0100000000000000000000000000000000000000000000000000000000028152600401808273ffffffffffffffffffffffffffffffffffffffff1673ffffffffffffffffffffffffffffffffffffffff16815260200191505060206040518083038186803b15801561246957600080fd5b505afa15801561247d573d6000803e3d6000fd5b505050506040513d602081101561249357600080fd5b8101908080519060200190929190505050905060006125356125046103e86124f6600860008763ffffffff1663ffffffff16815260200190815260200160002060040160009054906101000a900460ff1660ff16886130ab90919063ffffffff16565b6130e990919063ffffffff16565b600860008563ffffffff1663ffffffff16815260200190815260200160002060050154612ad390919063ffffffff16565b905060006125ba61258f6103e8612581600860008063ffffffff16815260200190815260200160002060040160009054906101000a900460ff1660ff16896130ab90919063ffffffff16565b6130e990919063ffffffff16565b600860008063ffffffff16815260200190815260200160002060050154612ad390919063ffffffff16565b905060008211156125d0578193505050506125d7565b8093505050505b92915050565b600080600760009054906101000a900473ffffffffffffffffffffffffffffffffffffffff1673ffffffffffffffffffffffffffffffffffffffff1663c2bc2efc856040518263ffffffff167c0100000000000000000000000000000000000000000000000000000000028152600401808273ffffffffffffffffffffffffffffffffffffffff1673ffffffffffffffffffffffffffffffffffffffff16815260200191505060206040518083038186803b15801561269b57600080fd5b505afa1580156126af573d6000803e3d6000fd5b505050506040513d60208110156126c557600080fd5b8101908080519060200190929190505050905060006127676127366103e8612728600860008763ffffffff1663ffffffff16815260200190815260200160002060000160009054906101000a900460ff1660ff16886130ab90919063ffffffff16565b6130e990919063ffffffff16565b600860008563ffffffff1663ffffffff16815260200190815260200160002060010154612ad390919063ffffffff16565b905060006127ec6127c16103e86127b3600860008063ffffffff16815260200190815260200160002060000160009054906101000a900460ff1660ff16896130ab90919063ffffffff16565b6130e990919063ffffffff16565b600860008063ffffffff16815260200190815260200160002060010154612ad390919063ffffffff16565b9050600082111561280257819350505050612809565b8093505050505b92915050565b600061281b83836123ab565b905060008183019050600073ffffffffffffffffffffffffffffffffffffffff168473ffffffffffffffffffffffffffffffffffffffff161415151561286057600080fd5b600160008573ffffffffffffffffffffffffffffffffffffffff1673ffffffffffffffffffffffffffffffffffffffff1681526020019081526020016000205481111515156128ae57600080fd5b6128c383600354612af490919063ffffffff16565b60038190555061291b81600160008773ffffffffffffffffffffffffffffffffffffffff1673ffffffffffffffffffffffffffffffffffffffff16815260200190815260200160002054612af490919063ffffffff16565b600160008673ffffffffffffffffffffffffffffffffffffffff1673ffffffffffffffffffffffffffffffffffffffff168152602001908152602001600020819055506129d28260016000600660009054906101000a900473ffffffffffffffffffffffffffffffffffffffff1673ffffffffffffffffffffffffffffffffffffffff1673ffffffffffffffffffffffffffffffffffffffff16815260200190815260200160002054612ad390919063ffffffff16565b60016000600660009054906101000a900473ffffffffffffffffffffffffffffffffffffffff1673ffffffffffffffffffffffffffffffffffffffff1673ffffffffffffffffffffffffffffffffffffffff16815260200190815260200160002081905550600073ffffffffffffffffffffffffffffffffffffffff168473ffffffffffffffffffffffffffffffffffffffff167fa8e9c8a0f3291c9fb294e2d24d1ef576cb62cca1b28c6a3d89732353be3dddc9858560405180838152602001828152602001807f30783000000000000000000000000000000000000000000000000000000000008152506020019250505060405180910390a350505050565b6000808284019050838110151515612aea57600080fd5b8091505092915050565b6000828211151515612b0557600080fd5b600082840390508091505092915050565b6000612b2284846125dd565b905060008184019050600160008773ffffffffffffffffffffffffffffffffffffffff1673ffffffffffffffffffffffffffffffffffffffff168152602001908152602001600020548111151515612b7957600080fd5b600073ffffffffffffffffffffffffffffffffffffffff168573ffffffffffffffffffffffffffffffffffffffff1614151515612bb557600080fd5b612c0784600160008973ffffffffffffffffffffffffffffffffffffffff1673ffffffffffffffffffffffffffffffffffffffff16815260200190815260200160002054612af490919063ffffffff16565b600160008873ffffffffffffffffffffffffffffffffffffffff1673ffffffffffffffffffffffffffffffffffffffff16815260200190815260200160002081905550612c9c84600160008873ffffffffffffffffffffffffffffffffffffffff1673ffffffffffffffffffffffffffffffffffffffff16815260200190815260200160002054612ad390919063ffffffff16565b600160008773ffffffffffffffffffffffffffffffffffffffff1673ffffffffffffffffffffffffffffffffffffffff16815260200190815260200160002081905550612d538260016000600460009054906101000a900473ffffffffffffffffffffffffffffffffffffffff1673ffffffffffffffffffffffffffffffffffffffff1673ffffffffffffffffffffffffffffffffffffffff16815260200190815260200160002054612ad390919063ffffffff16565b60016000600460009054906101000a900473ffffffffffffffffffffffffffffffffffffffff1673ffffffffffffffffffffffffffffffffffffffff1673ffffffffffffffffffffffffffffffffffffffff168152602001908152602001600020819055508473ffffffffffffffffffffffffffffffffffffffff168673ffffffffffffffffffffffffffffffffffffffff167fa8e9c8a0f3291c9fb294e2d24d1ef576cb62cca1b28c6a3d89732353be3dddc986858760405180848152602001838152602001828152602001935050505060405180910390a3505050505050565b600073ffffffffffffffffffffffffffffffffffffffff168273ffffffffffffffffffffffffffffffffffffffff1614151515612e7157600080fd5b6000612e7d8383611e49565b905060008183039050612e9b83600354612ad390919063ffffffff16565b600381905550612ef381600160008773ffffffffffffffffffffffffffffffffffffffff1673ffffffffffffffffffffffffffffffffffffffff16815260200190815260200160002054612ad390919063ffffffff16565b600160008673ffffffffffffffffffffffffffffffffffffffff1673ffffffffffffffffffffffffffffffffffffffff16815260200190815260200160002081905550612faa8260016000600560009054906101000a900473ffffffffffffffffffffffffffffffffffffffff1673ffffffffffffffffffffffffffffffffffffffff1673ffffffffffffffffffffffffffffffffffffffff16815260200190815260200160002054612ad390919063ffffffff16565b60016000600560009054906101000a900473ffffffffffffffffffffffffffffffffffffffff1673ffffffffffffffffffffffffffffffffffffffff1673ffffffffffffffffffffffffffffffffffffffff168152602001908152602001600020819055508373ffffffffffffffffffffffffffffffffffffffff16600073ffffffffffffffffffffffffffffffffffffffff167fa8e9c8a0f3291c9fb294e2d24d1ef576cb62cca1b28c6a3d89732353be3dddc9838560405180838152602001828152602001807f30783100000000000000000000000000000000000000000000000000000000008152506020019250505060405180910390a350505050565b6000808314156130be57600090506130e3565b600082840290508284828115156130d157fe5b041415156130de57600080fd5b809150505b92915050565b600080821115156130f957600080fd5b6000828481151561310657fe5b0490508091505092915050565b600073ffffffffffffffffffffffffffffffffffffffff168173ffffffffffffffffffffffffffffffffffffffff161415151561314f57600080fd5b8073ffffffffffffffffffffffffffffffffffffffff166000809054906101000a900473ffffffffffffffffffffffffffffffffffffffff1673ffffffffffffffffffffffffffffffffffffffff167f8be0079c531659141344cd1fd0a4f28419497f9722a3daafe3b4186f6b6457e060405160405180910390a3806000806101000a81548173ffffffffffffffffffffffffffffffffffffffff021916908373ffffffffffffffffffffffffffffffffffffffff16021790555050565b60c060405190810160405280600060ff16815260200160008152602001600060ff16815260200160008152602001600060ff16815260200160008152509056fea165627a7a723058207cda164e2bf07d92d2d36932335a234a5430b3f18987e9404ace1ae999aa363f0029",
  "source": "pragma solidity ^0.5.0;\n\nimport \"./SIERC20.sol\";\nimport \"openzeppelin-solidity/contracts/math/SafeMath.sol\";\nimport \"./PassportInterface.sol\";\nimport \"openzeppelin-solidity/contracts/ownership/Ownable.sol\";\n/**\n * @title Stable token ERC20\n *\n */\ncontract StableERC20 is SIERC20, Ownable {\n\n  using SafeMath for uint256;\n\n  mapping (address => uint256) private _balances;\n\n  mapping (address => mapping (address => uint256)) public _allowed;\n\n  uint256 private _totalSupply;\n\n  address public _transferFeeWallet;\n\n  address public _depositFeeWallet;\n\n  address public _withdrawFeeWallet;\n\n  PassportInterface public _passport;\n\n\n  struct Fee {\n    uint8 transferFlex;\n    uint256 transferFix;\n    uint8 depositFlex;\n    uint256 depositFix;\n    uint8 withdrawFlex;\n    uint256 withdrawFix;\n  }\n\n  mapping (uint32 => Fee) passportFees;\n\n  // Set fees amount for pass\n  function setDefaultFee(\n    uint8 transferFlex,\n    uint256 transferFix,\n    uint8 depositFlex,\n    uint256 depositFix,\n    uint8 withdrawFlex,\n    uint256 withdrawFix) public onlyOwner returns(bool) {\n      passportFees[0x0].transferFlex = transferFlex;\n      passportFees[0x0].transferFix = transferFix;\n      passportFees[0x0].depositFlex = depositFlex;\n      passportFees[0x0].depositFix = depositFix;\n      passportFees[0x0].withdrawFlex = withdrawFlex;\n      passportFees[0x0].withdrawFix = withdrawFix;\n      return true;\n  }\n\n  // Set fees amount for pass\n  function setPassportFee(\n    uint32 pass,\n    uint8 transferFlex,\n    uint256 transferFix,\n    uint8 depositFlex,\n    uint256 depositFix,\n    uint8 withdrawFlex,\n    uint256 withdrawFix) public onlyOwner returns(bool) {\n      passportFees[pass].transferFlex = transferFlex;\n      passportFees[pass].transferFix = transferFix;\n      passportFees[pass].depositFlex = depositFlex;\n      passportFees[pass].depositFix = depositFix;\n      passportFees[pass].withdrawFlex = withdrawFlex;\n      passportFees[pass].withdrawFix = withdrawFix;\n      return true;\n  }\n\n  // Get default fees\n  function getDefaultFees() public view returns(uint8, uint256, uint8, uint256, uint8, uint256) {\n    Fee memory fees = passportFees[0x0];\n    return (fees.transferFlex, fees.transferFix, fees.depositFlex, fees.depositFix, fees.withdrawFlex, fees.withdrawFix);\n  }\n  // Get default fees\n  function getFees(address payer) public view returns(uint8, uint256, uint8, uint256, uint8, uint256) {\n    uint32 pass = _passport.get(payer);\n    Fee memory fees = passportFees[pass];\n    return (fees.transferFlex, fees.transferFix, fees.depositFlex, fees.depositFix, fees.withdrawFlex, fees.withdrawFix);\n  }\n\n  // Get default fees\n  function getPassportFees(uint32 pass) public view returns(uint8, uint256, uint8, uint256, uint8, uint256) {\n    Fee memory fees = passportFees[pass];\n    return (fees.transferFlex, fees.transferFix, fees.depositFlex, fees.depositFix, fees.withdrawFlex, fees.withdrawFix);\n  }\n\n\n  // Get transfer fee by amount and payer\n  function getTransferFee(address payer, uint256 amount) public view returns(uint256){\n      uint32 pass = _passport.get(payer);\n      uint256 passportFee = passportFees[pass].transferFix.add(amount.mul(passportFees[pass].transferFlex).div(1000));\n      uint256 defaultFee = passportFees[0x0].transferFix.add(amount.mul(passportFees[0x0].transferFlex).div(1000));\n      if (passportFee > 0){\n        return passportFee;\n      } else {\n        return defaultFee;\n      }\n  }\n\n  // Get deposit fee by amount and payer\n  function getDepositFee(address payer, uint256 amount) public view returns(uint256){\n      uint32 pass = _passport.get(payer);\n      uint256 passportFee = passportFees[pass].depositFix.add(amount.mul(passportFees[pass].depositFlex).div(1000));\n      uint256 defaultFee = passportFees[0x0].depositFix.add(amount.mul(passportFees[0x0].depositFlex).div(1000));\n      if (passportFee > 0){\n        return passportFee;\n      } else {\n        return defaultFee;\n      }\n  }\n\n  // Get deposit fee by amount and payer\n  function getWithdrawFee(address payer, uint256 amount) public view returns(uint256){\n      uint32 pass = _passport.get(payer);\n      uint256 passportFee = passportFees[pass].withdrawFix.add(amount.mul(passportFees[pass].withdrawFlex).div(1000));\n      uint256 defaultFee = passportFees[0x0].withdrawFix.add(amount.mul(passportFees[0x0].withdrawFlex).div(1000));\n      if (passportFee > 0){\n        return passportFee;\n      } else {\n        return defaultFee;\n      }\n  }\n\n\n  /**\n  * @dev Total number of tokens in existence\n  */\n  function totalSupply() public view returns (uint256) {\n    return _totalSupply;\n  }\n\n  /**\n  * @dev Gets the balance of the specified address.\n  * @param owner The address to query the balance of.\n  * @return An uint256 representing the amount owned by the passed address.\n  */\n  function balanceOf(address owner) public view returns (uint256) {\n    return _balances[owner];\n  }\n\n  /**\n   * @dev Function to check the amount of tokens that an owner allowed to a spender.\n   * @param owner address The address which owns the funds.\n   * @param spender address The address which will spend the funds.\n   * @return A uint256 specifying the amount of tokens still available for the spender.\n   */\n  function allowance(\n    address owner,\n    address spender\n   )\n    public\n    view\n    returns (uint256)\n  {\n    return _allowed[owner][spender];\n  }\n\n  /**\n  * @dev Transfer token for a specified address\n  * @param to The address to transfer to.\n  * @param value The amount to be transferred.\n  */\n  function transfer(address to, uint256 value) public returns (bool) {\n    require(_passport.hasActive(to));\n    _transfer(msg.sender, to, value, '');\n    return true;\n  }\n\n\n  function transferRef(address to, uint256 value, bytes32 ref) public returns (bool) {\n    require(_passport.hasActive(to));\n    _transfer(msg.sender, to, value, ref);\n    return true;\n  }\n\n\n  /**\n  * @dev Mint tokens to account if address has pass\n  */\n  function mint(address account, uint256 value) public onlyOwner returns(bool){\n    // require(_passport.hasActivePass(account));\n    _mint(account, value);\n  }\n\n\n\n  /**\n  * @dev Mint tokens to account if address has pass\n  */\n  function burn(address account, uint256 value) public onlyOwner returns(bool){\n    // require(_passport.hasActivePass(account));\n    _burn(account, value);\n  }\n\n\n  /**\n  * @dev Mint tokens to account if address has pass\n  */\n  function withdraw(uint256 value) public returns(bool){\n    // require(_passport.hasActivePass(account));\n    _burn(msg.sender, value);\n  }\n  /**\n   * @dev Approve the passed address to spend the specified amount of tokens on behalf of msg.sender.\n   * Beware that changing an allowance with this method brings the risk that someone may use both the old\n   * and the new allowance by unfortunate transaction ordering. One possible solution to mitigate this\n   * race condition is to first reduce the spender's allowance to 0 and set the desired value afterwards:\n   * https://github.com/ethereum/EIPs/issues/20#issuecomment-263524729\n   * @param spender The address which will spend the funds.\n   * @param value The amount of tokens to be spent.\n   */\n  function approve(address spender, uint256 value) public returns (bool) {\n    require(spender != address(0));\n\n    _allowed[msg.sender][spender] = value;\n    emit Approval(msg.sender, spender, value);\n    return true;\n  }\n\n  /**\n   * @dev Transfer tokens from one address to another\n   * @param from address The address which you want to send tokens from\n   * @param to address The address which you want to transfer to\n   * @param value uint256 the amount of tokens to be transferred\n   */\n  function transferFrom(\n    address from,\n    address to,\n    uint256 value,\n    bytes32 ref\n  )\n    public\n    returns (bool)\n  {\n    require(_passport.hasActive(to));\n    require(value <= _allowed[from][msg.sender]);\n\n    _allowed[from][msg.sender] = _allowed[from][msg.sender].sub(value);\n    _transfer(from, to, value, ref);\n    return true;\n  }\n\n  /**\n   * @dev Increase the amount of tokens that an owner allowed to a spender.\n   * approve should be called when allowed_[_spender] == 0. To increment\n   * allowed value is better to use this function to avoid 2 calls (and wait until\n   * the first transaction is mined)\n   * From MonolithDAO Token.sol\n   * @param spender The address which will spend the funds.\n   * @param addedValue The amount of tokens to increase the allowance by.\n   */\n  function increaseAllowance(\n    address spender,\n    uint256 addedValue\n  )\n    public\n    returns (bool)\n  {\n    require(spender != address(0));\n\n    _allowed[msg.sender][spender] = (\n      _allowed[msg.sender][spender].add(addedValue));\n    emit Approval(msg.sender, spender, _allowed[msg.sender][spender]);\n    return true;\n  }\n\n  /**\n   * @dev Decrease the amount of tokens that an owner allowed to a spender.\n   * approve should be called when allowed_[_spender] == 0. To decrement\n   * allowed value is better to use this function to avoid 2 calls (and wait until\n   * the first transaction is mined)\n   * From MonolithDAO Token.sol\n   * @param spender The address which will spend the funds.\n   * @param subtractedValue The amount of tokens to decrease the allowance by.\n   */\n  function decreaseAllowance(\n    address spender,\n    uint256 subtractedValue\n  )\n    public\n    returns (bool)\n  {\n    require(spender != address(0));\n\n    _allowed[msg.sender][spender] = (\n      _allowed[msg.sender][spender].sub(subtractedValue));\n    emit Approval(msg.sender, spender, _allowed[msg.sender][spender]);\n    return true;\n  }\n\n  /**\n  * @dev Transfer token for a specified addresses\n  * @param from The address to transfer from.\n  * @param to The address to transfer to.\n  * @param value The amount to be transferred.\n  */\n  function _transfer(address from, address to, uint256 value, bytes32 ref) internal {\n\n\n    uint fee = getTransferFee(to, value);\n    uint valueTotal = value + fee;\n\n    require(valueTotal <= _balances[from]);\n    require(to != address(0));\n\n\n\n    _balances[from] = _balances[from].sub(value);\n    _balances[to] = _balances[to].add(value);\n    _balances[_transferFeeWallet] = _balances[_transferFeeWallet].add(fee);\n\n    emit Transfer(from, to, value, fee, ref);\n  }\n\n  /**\n   * @dev Internal function that mints an amount of the token and assigns it to\n   * an account. This encapsulates the modification of balances such that the\n   * proper events are emitted.\n   * @param account The account that will receive the created tokens.\n   * @param value The amount that will be created.\n   */\n  function _mint(address account, uint256 value) internal {\n    require(account != address(0));\n\n    uint fee = getDepositFee(account, value);\n    uint valueToTransfer = value - fee;\n    _totalSupply = _totalSupply.add(value);\n    _balances[account] = _balances[account].add(valueToTransfer);\n    _balances[_depositFeeWallet] = _balances[_depositFeeWallet].add(fee);\n    emit Transfer(address(0), account, valueToTransfer, fee, '0x1');\n  }\n\n  /**\n   * @dev Internal function that burns an amount of the token of a given\n   * account.\n   * @param account The account whose tokens will be burnt.\n   * @param value The amount that will be burnt.\n   */\n  function _burn(address account, uint256 value) internal {\n    uint fee = getWithdrawFee(account, value);\n    uint valueTotal = value + fee;\n    require(account != address(0));\n    require(valueTotal <= _balances[account]);\n\n\n    _totalSupply = _totalSupply.sub(value);\n    _balances[account] = _balances[account].sub(valueTotal);\n    _balances[_withdrawFeeWallet] = _balances[_withdrawFeeWallet].add(fee);\n    emit Transfer(account, address(0), value, fee, '0x0');\n  }\n\n  /**\n   * @dev Internal function that burns an amount of the token of a given\n   * account, deducting from the sender's allowance for said account. Uses the\n   * internal burn function.\n   * @param account The account whose tokens will be burnt.\n   * @param value The amount that will be burnt.\n   */\n  function _burnFrom(address account, uint256 value) internal {\n    require(value <= _allowed[account][msg.sender]);\n\n    // Should https://github.com/OpenZeppelin/zeppelin-solidity/issues/707 be accepted,\n    // this function needs to emit an event with the updated approval.\n    _allowed[account][msg.sender] = _allowed[account][msg.sender].sub(\n      value);\n    _burn(account, value);\n  }\n}\n",
  "sourcePath": "/Users/mishayefimets/SkylarkWallet/contracts/StableERC20.sol",
  "compiler": {
    "name": "solc",
    "version": "0.5.0+commit.1d4f565a.Emscripten.clang"
  },
  "schemaVersion": "3.0.1",
  "updatedAt": "2019-03-12T09:09:31.250Z",
  "devdoc": {
    "methods": {
      "allowance(address,address)": {
        "details": "Function to check the amount of tokens that an owner allowed to a spender.",
        "params": {
          "owner": "address The address which owns the funds.",
          "spender": "address The address which will spend the funds."
        },
        "return": "A uint256 specifying the amount of tokens still available for the spender."
      },
      "approve(address,uint256)": {
        "details": "Approve the passed address to spend the specified amount of tokens on behalf of msg.sender. Beware that changing an allowance with this method brings the risk that someone may use both the old and the new allowance by unfortunate transaction ordering. One possible solution to mitigate this race condition is to first reduce the spender's allowance to 0 and set the desired value afterwards: https://github.com/ethereum/EIPs/issues/20#issuecomment-263524729",
        "params": {
          "spender": "The address which will spend the funds.",
          "value": "The amount of tokens to be spent."
        }
      },
      "balanceOf(address)": {
        "details": "Gets the balance of the specified address.",
        "params": {
          "owner": "The address to query the balance of."
        },
        "return": "An uint256 representing the amount owned by the passed address."
      },
      "burn(address,uint256)": {
        "details": "Mint tokens to account if address has pass"
      },
      "decreaseAllowance(address,uint256)": {
        "details": "Decrease the amount of tokens that an owner allowed to a spender. approve should be called when allowed_[_spender] == 0. To decrement allowed value is better to use this function to avoid 2 calls (and wait until the first transaction is mined) From MonolithDAO Token.sol",
        "params": {
          "spender": "The address which will spend the funds.",
          "subtractedValue": "The amount of tokens to decrease the allowance by."
        }
      },
      "increaseAllowance(address,uint256)": {
        "details": "Increase the amount of tokens that an owner allowed to a spender. approve should be called when allowed_[_spender] == 0. To increment allowed value is better to use this function to avoid 2 calls (and wait until the first transaction is mined) From MonolithDAO Token.sol",
        "params": {
          "addedValue": "The amount of tokens to increase the allowance by.",
          "spender": "The address which will spend the funds."
        }
      },
      "isOwner()": {
        "return": "true if `msg.sender` is the owner of the contract."
      },
      "mint(address,uint256)": {
        "details": "Mint tokens to account if address has pass"
      },
      "owner()": {
        "return": "the address of the owner."
      },
      "renounceOwnership()": {
        "details": "Allows the current owner to relinquish control of the contract."
      },
      "totalSupply()": {
        "details": "Total number of tokens in existence"
      },
      "transfer(address,uint256)": {
        "details": "Transfer token for a specified address",
        "params": {
          "to": "The address to transfer to.",
          "value": "The amount to be transferred."
        }
      },
      "transferFrom(address,address,uint256,bytes32)": {
        "details": "Transfer tokens from one address to another",
        "params": {
          "from": "address The address which you want to send tokens from",
          "to": "address The address which you want to transfer to",
          "value": "uint256 the amount of tokens to be transferred"
        }
      },
      "transferOwnership(address)": {
        "details": "Allows the current owner to transfer control of the contract to a newOwner.",
        "params": {
          "newOwner": "The address to transfer ownership to."
        }
      },
      "withdraw(uint256)": {
        "details": "Mint tokens to account if address has pass"
      }
    },
    "title": "Stable token ERC20 "
  },
  "userdoc": {
    "methods": {
      "renounceOwnership()": {
        "notice": "Renouncing to ownership will leave the contract without an owner. It will not be possible to call the functions with the `onlyOwner` modifier anymore."
      }
    }
  }
}